:100000000C948A000C94B2000C94B2000C94B200D0
:100010000C94B2000C94B2000C94B2000C94B20098
:100020000C94B2000C94B2000C94B2000C94E20553
:100030000C94B2000C94B2000C94B2000C94B20078
:100040000C9440050C94B2000C94B0050C948A05F5
:100050000C94B2000C94B2000C94B2000C94B20058
:100060000C94B2000C94B20008000000BE92244927
:10007000123EABAAAA2ABECDCCCC4C3E00000080DA
:10008000BEABAAAAAA3E00000000BF000000803F4D
:100090000000000000084178D3BB4387D1133D190D
:1000A0000E3CC3BD4282AD2B3E68EC8276BED98F3A
:1000B000E1A93E4C80EFFFBE01C4FF7F3F0000007E
:1000C0000000000000080002010000030407000017
:1000D00000000000000000000000250028002B00A8
:1000E00000000000240027002A000102040810205C
:1000F00040800102040810200102040810200404BA
:1001000004040404040402020202020203030303BF
:100110000303F90511241FBECFEFD8E0DEBFCDBF2A
:1001200011E0A0E0B1E0E6E9FCE102C005900D922B
:10013000A434B107D9F722E0A4E4B1E001C01D92D4
:10014000A033B207E1F710E0CAE8D0E004C021977D
:10015000FE010E943A0EC938D107C9F70E948A06EB
:100160000C94490E0C94000090E0FC01E651FF4F06
:10017000249182509F4FFC018491882399F090E054
:10018000880F991FFC01E052FF4FA591B491FC012B
:10019000EA52FF4F859194918FB7F894EC91E22B3E
:1001A000EC938FBF089590E0FC01EE53FF4F249134
:1001B000FC01E651FF4F3491FC01E250FF4FE49106
:1001C000EE23C9F0222339F0233001F1A8F42130C5
:1001D00019F1223029F1F0E0EE0FFF1FEA52FF4F34
:1001E000A591B4918FB7F894EC91611126C0309528
:1001F0003E233C938FBF08952730A9F02830C9F0E3
:10020000243049F7809180008F7D03C08091800069
:100210008F7780938000DFCF84B58F7784BDDBCF6D
:1002200084B58F7DFBCF8091B0008F778093B00035
:10023000D2CF8091B0008F7DF9CF3E2BDACF61E035
:10024000809127020C94D3008E50806480937C00B0
:1002500080917A00806480937A0080917A0086FD94
:10026000FCCF809178009091790008953FB7F89481
:100270008091570190915801A0915901B0915A0174
:1002800026B5A89B05C02F3F19F00196A11DB11DF1
:100290003FBFBA2FA92F982F8827BC01CD01620F2D
:1002A000711D811D911D42E0660F771F881F991FE8
:1002B0004A95D1F708958F929F92AF92BF92CF92B5
:1002C000DF92EF92FF924B015C010E9436016B01BD
:1002D0007C010E9436016C197D098E099F09683ED8
:1002E000734081059105A8F321E0821A9108A108C5
:1002F000B10888EEC80E83E0D81EE11CF11C811401
:100300009104A104B10429F7FF90EF90DF90CF9002
:10031000BF90AF909F908F900895AF92BF92CF9271
:10032000DF92EF92FF920F931F93CF93DF936C01B5
:100330007B018B01040F151FEB015E01AE18BF0896
:10034000C017D10759F06991D601ED91FC91019048
:10035000F081E02DC6010995892B79F7C501DF9160
:10036000CF911F910F91FF90EF90DF90CF90BF90B2
:10037000AF900895FC01538D448D252F30E0842FDC
:1003800090E0821B930B541710F0CF9608950197BD
:100390000895FC01918D828D981761F0A28DAE0FAA
:1003A000BF2FB11D5D968C91928D9F5F9F73928F31
:1003B00090E008958FEF9FEF0895FC01918D828D5D
:1003C000981731F0828DE80FF11D858D90E008952A
:1003D0008FEF9FEF0895FC01918D228D892F90E082
:1003E000805C9F4F821B91098F739927089588E83D
:1003F00091E00E94EB0121E0892B09F420E0822F9B
:10040000089580E090E0892B29F00E94F701811186
:100410000C9400000895FC01A48DA80FB92FB11D04
:10042000A35ABF4F2C91848D90E001968F7399272A
:10043000848FA689B7892C93A089B1898C91837008
:1004400080648C93938D848D981306C00288F38901
:10045000E02D80818F7D80830895EF92FF920F932E
:100460001F93CF93DF93EC0181E0888F9B8D8C8D60
:1004700098131AC0E889F989808185FF15C09FB754
:10048000F894EE89FF896083E889F9898081837017
:10049000806480839FBF81E090E0DF91CF911F91C6
:1004A0000F91FF90EF900895F62E0B8D10E00F5FE7
:1004B0001F4F0F731127E02E8C8D8E110CC00FB6BD
:1004C00007FCFACFE889F989808185FFF5CFCE0155
:1004D0000E940B02F1CFEB8DEC0FFD2FF11DE35AC3
:1004E000FF4FF0829FB7F8940B8FEA89FB898081D8
:1004F0008062CFCFCF93DF93EC01888D8823B9F052
:10050000AA89BB89E889F9898C9185FD03C080811E
:1005100086FD0DC00FB607FCF7CF8C9185FFF2CF9B
:10052000808185FFEDCFCE010E940B02E9CFDF91E4
:10053000CF9108958EBD00000DB407FEFDCF8EB59E
:1005400008950F931F930091280210912902209182
:100550002A0230912B0240E052E16AE770E080E02D
:10056000041715072607370740F4769567955795C2
:1005700047958F5F8630A1F787E0982F906A969510
:10058000809581709CBD8DBD60E0809127021F9198
:100590000F910C94D300CF93C82F0E94A10283E047
:1005A0000E949A028C2F0E949A0280E00E949A0276
:1005B000C82F0E941F018C2FCF910895FF920F9397
:1005C0001F93CF93DF93C82FF62E172F042F0E946F
:1005D000A10282E00E949A028C2F0E949A02CF2DE3
:1005E000D12F0C0F1D2F111DC017D10721F089919C
:1005F0000E949A02F9CFDF91CF911F910F91FF9046
:100600000C941F011F93CF93DF93182FD62FC42F65
:100610000E94A10285E00E949A02812F0E949A0204
:100620008D2F0E949A028C2F0E949A02DF91CF9107
:100630001F910C941F01CF92DF92EF92FF92CF9304
:10064000C82F482F60EE8FE00E9402038FB7F89406
:10065000C0907001D0907101E0907201F090730130
:100660008FBF8AE0C80ED11CE11CF11C2FB7F89493
:100670008091700190917101A0917201B09173010C
:100680002FBF8C159D05AE05BF0580F48EE00E943E
:10069000CB02807EC813EACF81E091E0892790E009
:1006A000CF91FF90EF90DF90CF90089580E0F5CF4D
:1006B000CF93DF93D82FC62F0E94A10282E00E9421
:1006C0009A028D2F0E949A028C2F0E949A02DF912B
:1006D000CF910C941F01FF920F931F93CF93DF9341
:1006E000C82FF62E172F042F0E94A10283E00E942C
:1006F0009A028C2F0E949A02CF2DD12F0C0F1D2F02
:10070000111DC017D10729F080E00E949A02899339
:10071000F8CFDF91CF911F910F91FF900C941F01A3
:10072000BF92CF92DF92EF92FF920F931F93CF93DE
:10073000DF9300D000D01F92CDB7DEB78C01000F41
:10074000111F000F111FF801EE5EFE4F45E0BE01C4
:100750006F5F7F4F81810E946B038A81C98098E01F
:10076000C99E60011124282F30E055E0359527956A
:100770005A95E1F7C20ED31E0D2C000CEE08FF08AF
:1007800083FF20C092E0CC0CDD1CEE1CFF1C9A9570
:10079000D1F78370C80ED11CE11CF11CFE2CED2C8E
:1007A000DC2CCC248B81C80ED11CE11CF11CFE2C4E
:1007B000ED2CDC2CCC248C81C80ED11CE11CF11C4E
:1007C0006894F7F88D818F70B82EE8E081E090E0B2
:1007D000EB1528F1F801EE5EFE4F80810E94CB02FE
:1007E00083FF02C06894F6F8C0926001D092610164
:1007F000E0926201F0926301B09264010E5E1E4FBE
:100800004B2D68E671E0F80182810E946B0340E0A5
:10081000F80163818CE20E94020390E080E00F9077
:100820000F900F900F900F90DF91CF911F910F912C
:10083000FF90EF90DF90CF90BF9008958F929F929E
:10084000AF92BF92CF92DF92EF92FF920F931F93DE
:10085000CF93DF93CDB7DEB763970FB6F894DEBFC3
:100860000FBECDBF86E0E0E0F1E0DE011E96019014
:100870000D928A95E1F75E018EE0A80EB11C4E0143
:10088000E4E18E0E911CF501E190F1905F0187018A
:10089000000F111FF801EE0DFF1DE65EFE4FC08038
:1008A0008C2D0E94CB0283FD93C0D0907C01F8E098
:1008B000FD1508F467C08091780190917901A091AD
:1008C0007A01B0917B01AC01BD01442777FD4395CE
:1008D000552766277727242FAC01BD0144275527CC
:1008E0006627707488248A94982CA82CFFE1BF2E68
:1008F000211106C088248A94E7E09E2EA12CB12CF9
:1009000088219921AA21BB21222309F43EC08C838E
:100910009B83CD01AA27BB27282F220F220F220F4E
:10092000207E382F33703860232B2A8335E096954C
:1009300087953A95E1F789838D2D452B462B472BDB
:1009400009F080648D834D2D50E060E871E0CE01A8
:1009500006960E94400E45E04D0D0E0D1F1DF8013C
:10096000E65EFE4FBE016F5F7F4F81810E94DE0217
:1009700048E068E08C2D0E9402038C2D0E94CB027F
:10098000807789F084E090E010C09C0193E0369578
:1009900027959A95E1F729838295880F807E8A832F
:1009A0001C821B82C9CF90E080E063960FB6F8945A
:1009B000DEBF0FBECDBFDF91CF911F910F91FF9092
:1009C000EF90DF90CF90BF90AF909F908F90089561
:1009D000A814B90409F057CF82E090E0E6CFFC01FB
:1009E00001900020E9F73197AF01481B590BBC017A
:1009F00088E891E00C948D018F929F92AF92BF9204
:100A00000F931F93CF93DF93CDB7DEB7A1970FB6A8
:100A1000F894DEBF0FBECDBF19A2423008F44AE001
:100A20008E010F5D1F4F842E912CB12CA12CA5019E
:100A300094010E94180EE62FB901CA01EA30F4F4BD
:100A4000E05DD801EE938D01232B242B252B79F724
:100A500090E080E0109719F0CD010E94EF04A1967C
:100A60000FB6F894DEBF0FBECDBFDF91CF911F91BF
:100A70000F91BF90AF909F908F900895E95CE1CF68
:100A80001F920F920FB60F9211242F933F938F93C3
:100A90009F93AF93BF938091700190917101A0914A
:100AA0007201B09173013091560123E0230F2D376D
:100AB00058F50196A11DB11D209356018093700138
:100AC00090937101A0937201B093730180915701CB
:100AD00090915801A0915901B0915A010196A11D20
:100AE000B11D8093570190935801A0935901B09381
:100AF0005A01BF91AF919F918F913F912F910F908C
:100B00000FBE0F901F90189526E8230F0296A11D87
:100B1000B11DD2CF1F920F920FB60F9211242F93B7
:100B20003F934F935F936F937F938F939F93AF9375
:100B3000BF93EF93FF9388E891E00E940B02FF912F
:100B4000EF91BF91AF919F918F917F916F915F9145
:100B50004F913F912F910F900FBE0F901F901895BE
:100B60001F920F920FB60F9211242F938F939F9382
:100B7000EF93FF93E0919801F09199018081E091CA
:100B80009E01F0919F0182FD1BC090818091A10187
:100B90008F5F8F732091A201821741F0E091A10134
:100BA000F0E0E857FE4F958F8093A101FF91EF9100
:100BB0009F918F912F910F900FBE0F901F901895BE
:100BC0008081F4CF1F920F920FB60F9211248F9352
:100BD000EF93FF93E1E8F0E080818A7F80831092B9
:100BE0004901FF91EF918F910F900FBE0F901F90D1
:100BF0001895CF9310928B0110928A0188EE93E0A2
:100C0000A0E0B0E080938C0190938D01A0938E01C1
:100C1000B0938F0187E291E09093890180938801DE
:100C200085EC90E0909395018093940184EC90E0A2
:100C3000909397018093960180EC90E090939901B6
:100C40008093980181EC90E090939B0180939A01AE
:100C500082EC90E090939D0180939C0186EC90E063
:100C600090939F0180939E011092A1011092A20186
:100C70001092A3011092A40186E292E090932D02BB
:100C800080932C02CFB7F89480912502811124C063
:100C9000E8E0F1E08491E4EFF0E09491E82FF0E0F7
:100CA000EE0FFF1FE052FF4FA591B491EC91E923A5
:100CB00021F461E08AE00E94D3008AE00E94B4003F
:100CC0008CB580618CBD8CB580648CBD8DE00E943C
:100CD000B4008BE00E94B400809125028F5F809366
:100CE0002502CFBF8AE08093270280E896E9A8E931
:100CF000B0E08093280290932902A0932A02B09337
:100D00002B028AE00E94B40061E080912702CF911B
:100D10000C94D300CF93DF93CDB7DEB7A6970FB671
:100D2000F894DEBF0FBECDBF789484B5826084BDD9
:100D300084B5816084BD85B5826085BD85B58160DF
:100D400085BD80916E00816080936E00109281005D
:100D50008091810082608093810080918100816018
:100D600080938100809180008160809380008091D9
:100D7000B10084608093B1008091B0008160809365
:100D8000B00080917A00846080937A0080917A002C
:100D9000826080937A0080917A00816080937A00EB
:100DA00080917A00806880937A001092C100E0916F
:100DB0009801F091990182E08083E0919401F09193
:100DC00095011082E0919601F09197018FEC80835C
:100DD0001092A001E0919C01F0919D0186E080833A
:100DE000E0919A01F0919B01808180618083E09184
:100DF0009A01F0919B01808188608083E0919A0143
:100E0000F0919B01808180688083E0919A01F0914C
:100E10009B0180818F7D80838AB18F718AB92098F0
:100E200093B129B149B159B138E0939FC001112460
:100E3000887030E0220F232F221F330B220F331F25
:100E4000220F331F822B55FB992790F9892B942F62
:100E5000929596959270892B809348018AB188610A
:100E60008AB915E05B9A64E670E080E090E00E9449
:100E70005B015B9864E670E080E090E00E945B01BB
:100E80005C9A64E670E080E090E00E945B015C9810
:100E900064E670E080E090E00E945B01115011F781
:100EA00086EF90E0A0E0B0E0809378019093790124
:100EB000A0937A01B0937B0188E080937C010E942B
:100EC000A10280EC0E949A020E941F016AE070E079
:100ED00080E090E00E945B018E010F5F1F4F8EE06B
:100EE000F80111928A95E9F74EE0B80180E30E947B
:100EF000DE024EE0B80180E40E94DE024EE0B8015E
:100F000080E50E94DE0260E080E60E94580360E017
:100F100080E70E94580363EA8BE20E94580344E092
:100F200067E680E60E94020341E067E680E70E94F0
:100F300002038CE0E6E0F1E0DE011F9601900D92E5
:100F40008A95E1F76E01FFE0CF0ED11CF12CE12C68
:100F500038E0B32EF601019111916F0180E80E94F3
:100F60001B03892B71F40230110509F4F6C208F055
:100F7000A1C20115110509F4F6C20130110509F4E9
:100F8000A5C280E80E941B03892B61F460E08AE21D
:100F90000E94580360ED89E20E94580362E888E2EB
:100FA0000E94580380E00E941B031092800088E09A
:100FB000809381001092820010928500109284002C
:100FC0008BE197EB909389008093880082E0809377
:100FD0006F00789400E010E03324339498E0A92E59
:100FE000B12CC12CD12C760180E10E942401BC01DE
:100FF000990F880B990B0E946C0C9B01AC01C701E7
:10100000B6010E94510B6B017C0161E070E080E051
:1010100090E00E945B0131E0A31AB10829F720E0BB
:1010200030E040E05EE3C701B6010E94710D20E0B0
:1010300030E040E950E40E94710D20E030E040E8EB
:101040005AE30E94710D20E030E04CEE52E40E9421
:10105000C20B20E030E04AE754E40E94710D6B01BE
:101060007C014B015C01C0925201D0925301E0928D
:101070005401F0925501AC019B010E94DE0D8823C2
:1010800009F47AC285E391E00E94EF0481E491E0E3
:101090000E94EF0485E0A82EB12CC12CD12C760142
:1010A00081E10E942401BC01990F880B990B0E94D9
:1010B0006C0C20E030E040E950E40E94710D20E02B
:1010C00030E040E85AE30E94710D9B01AC01C7017A
:1010D000B6010E94510B6B017C0181E0A81AB10896
:1010E000F9F620E030E040EA50E4C701B6010E9482
:1010F000C20B2AE939E949E252E40E94710D20E06D
:1011000030E04AE754E40E94710D20E030E84EEDF3
:1011100053E40E94C20B2B013C0140924E015092BD
:101120004F0160925001709251018EE00E942401A3
:10113000BC01990F880B990B0E946C0C20E030E0E9
:1011400040E950E40E94710D20E030E040E85AE3AD
:101150000E94710D9B01AC0160E070EA8CE895E49F
:101160000E94C20B20E030E04AE754E40E94500B9A
:101170000E94290D6B017C018FE00E942401BC01BB
:10118000990F880B990B0E946C0C20E030E040E92D
:1011900050E40E94710D20E030E040E85AE30E94E4
:1011A000710D9B01AC0160E070EA8CE895E40E944F
:1011B000C20B20E030E04AE754E40E94500B0E944A
:1011C000290D4B015C012CE63DE64AEB53E30E94FE
:1011D000710DA50194010E94710DA50194010E9459
:1011E000710D6BA37CA38DA39EA323EA3CEA45E784
:1011F00059E3C501B4010E94710D2BEC35EE43E9B2
:101200005AE30E94510B9B01AC016BA17CA18DA103
:101210009EA10E94510B9B01AC0160E070E080E850
:101220009FE30E94C20B23E333E948E853E40E94A2
:10123000500B6BA37CA38DA39EA32CE63DE64AEB4B
:1012400053E3C701B6010E94710DA70196010E94E8
:10125000710DA70196010E94710D4B015C0123EAFB
:101260003CEA45E759E3C701B6010E94710D2BEC3A
:1012700035EE43E95AE30E94510B9B01AC01C501D5
:10128000B4010E94510B9B01AC0160E070E080E86A
:101290009FE30E94C20B23E333E948E853E40E9432
:1012A000500B9B01AC016BA17CA18DA19EA10E9462
:1012B000510B20E030E040E05FE30E94710D6B01D4
:1012C0007C01C0924A01D0924B01E0924C01F09215
:1012D0004D0120E030E04AEA52E40E941C0D18164D
:1012E0000CF058C080914901811154C020E030E0D9
:1012F00040E251E4C301B2010E94710D0E943B0C17
:101300005B0120E030E040E251E4C701B6010E94F9
:10131000710D0E94340C7B0120E030E040E251E48A
:101320006091520170915301809154019091550147
:101330000E94710D0E943B0CA0928001B09281012D
:10134000E0928201F0928301609384018FE08093A8
:1013500085018091480180938601109287018091D8
:101360007C01893010F40E941E045C9A64E670E0EF
:1013700080E090E00E945B015C9864E670E080E0B1
:1013800090E00E945B01309249018091810085606C
:10139000809381000E94A10280EA0E949A0280E06C
:1013A0000E949A02F82E0E941F0190E080E0F0FC5B
:1013B00004C0F1FE73C081E090E00E949003892B8D
:1013C00009F06CC08091600190916101A09162016F
:1013D000B0916301823F9105A105B10509F05EC09E
:1013E00080916801883209F059C020E030E040E285
:1013F00051E460914E0170914F01809150019091A4
:1014000051010E94710D0E943B0C6B0120E030E005
:1014100040E251E460914A0170914B0180914C018E
:1014200090914D010E94710D0E94340C7B0120E0CF
:1014300030E040E251E4609152017091530180919B
:101440005401909155010E94710D0E943B0CC09275
:101450008001D0928101E0928201F0928301609339
:1014600084018FE0809385018091480180938601FB
:101470001092870180917C01893010F40E941E0433
:101480005B9A64E670E080E090E00E945B015B980C
:1014900064E670E080E090E00E945B0101151105B8
:1014A00009F49CCD0E94F701882309F497CD0E948E
:1014B000000094CD0430110509F453C008F44FC066
:1014C0000530110509F05DCD88E101C084E0F1E04F
:1014D000EF16F10409F049C01E8E1D8EBC8E1B8EC6
:1014E00044E0BE01655E7F4F0E94DE023FEFE31ADB
:1014F000F30A86E0E816F10409F02CCD18A21F8E3D
:1015000081E090E09AA389A38E01015E1F4F6E01D6
:1015100093E2C90ED11C28E0B22EF801E190F190BF
:101520008F0180E80E941B03892B09F02ACD1E8EB3
:101530001D8EBC8E1B8EE114F104E1F0EA94EF28BD
:1015400009F01FCD84E244E0BE01655E7F4F0E943A
:10155000DE020C151D0509F714CD88E0B8CF80E137
:10156000B6CF84E1B4CF80E0B2CF1B8E1C8E1E8E2E
:101570001D8EB6CF80E2E7CF26013701E89477F8D9
:101580002FEF3FEF4FE75FE7C301B2010E94DE0D8F
:1015900081110DC02FEF3FEF4FE75FE7C301B201AD
:1015A0000E94BD0B18161CF489E391E06DCD2FEF5E
:1015B0003FEF4FE75FE4C701B6010E941C0D18160C
:1015C0001CF48DE391E060CD2FEF3FEF4FE75FEC30
:1015D000C701B6010E94BD0B87FDF3CF20E030E0CC
:1015E000A901C701B6010E94BD0B87FF0BC06DE2C8
:1015F00088E891E00E942D0246015701B7FAB094A5
:10160000B7F8B0942AE037ED43EA5BE3C501B401D3
:101610000E94510B4B015C010E943B0C6B017C0151
:101620000E946A0C9B01AC01C501B4010E94500BE1
:101630004B015C014AE0C701B6010E94FC046EE266
:1016400088E891E00E942D0220E030E040E251E481
:10165000C501B4010E94710D4B015C010E943B0C5D
:101660006B01F12CE12C4AE0C701B6010E94FC0499
:10167000C701B6010E946A0C9B01AC01C501B4010F
:101680000E94500B20E030E040E251E40E94710DD6
:101690000E943B0C90E080E04AE00E94FC04F6CC03
:1016A0005058BB27AA270E94680B0C94E20C0E949A
:1016B000D40C38F00E94DB0C20F039F49F3F19F471
:1016C00026F40C94D10C0EF4E095E7FB0C94CB0CB3
:1016D000E92F0E94F30C58F3BA17620773078407C7
:1016E000950720F079F4A6F50C94150D0EF4E0950D
:1016F0000B2EBA2FA02D0B01B90190010C01CA01CC
:10170000A0011124FF27591B99F0593F50F4503E76
:1017100068F11A16F040A22F232F342F4427585F68
:10172000F3CF469537952795A795F0405395C9F780
:101730007EF41F16BA0B620B730B840BBAF0915038
:10174000A1F0FF0FBB1F661F771F881FC2F70EC0D7
:10175000BA0F621F731F841F48F4879577956795AA
:10176000B795F7959E3F08F0B0CF9395880F08F096
:101770009927EE0F9795879508950E94A70C08F476
:1017800081E008950E94D60B0C94E20C0E94DB0CC1
:1017900058F00E94D40C40F029F45F3F29F00C94DB
:1017A000CB0C51110C94160D0C94D10C0E94F30C1F
:1017B00068F39923B1F3552391F3951B550BBB2780
:1017C000AA2762177307840738F09F5F5F4F220FC5
:1017D000331F441FAA1FA9F335D00E2E3AF0E0E8BC
:1017E00032D091505040E695001CCAF72BD0FE2F06
:1017F00029D0660F771F881FBB1F2617370748079A
:10180000AB07B0E809F0BB0B802DBF01FF27935851
:101810005F4F3AF09E3F510578F00C94CB0C0C943E
:10182000160D5F3FE4F3983ED4F386957795679560
:10183000B795F7959F5FC9F7880F911D9695879586
:1018400097F90895E1E0660F771F881FBB1F6217A5
:1018500073078407BA0720F0621B730B840BBA0B63
:10186000EE1F88F7E09508950E943B0C6894B11133
:101870000C94160D08950E94FB0C88F09F5798F069
:10188000B92F9927B751B0F0E1F0660F771F881F85
:10189000991F1AF0BA95C9F714C0B13091F00E949F
:1018A000150DB1E008950C94150D672F782F88273A
:1018B000B85F39F0B93FCCF3869577956795B395C6
:1018C000D9F73EF490958095709561957F4F8F4F35
:1018D0009F4F0895E89409C097FB3EF4909580953A
:1018E000709561957F4F8F4F9F4F9923A9F0F92FE6
:1018F00096E9BB279395F695879577956795B79564
:10190000F111F8CFFAF4BB0F11F460FF1BC06F5F49
:101910007F4F8F4F9F4F16C0882311F096E911C05B
:10192000772321F09EE8872F762F05C0662371F07C
:1019300096E8862F70E060E02AF09A95660F771F90
:10194000881FDAF7880F9695879597F90895990F6C
:101950000008550FAA0BE0E8FEEF16161706E80779
:10196000F907C0F012161306E407F50798F0621B9A
:10197000730B840B950B39F40A2661F0232B242B6F
:10198000252B21F408950A2609F4A140A6958FEF8E
:10199000811D811D089597F99F6780E870E060E0E0
:1019A00008959FEF80EC089500240A9416161706F8
:1019B00018060906089500240A9412161306140640
:1019C00005060895092E0394000C11F4882352F0A3
:1019D000BB0F40F4BF2B11F460FF04C06F5F7F4F5B
:1019E0008F4F9F4F089557FD9058440F551F59F042
:1019F0005F3F71F04795880F97FB991F61F09F3FFC
:101A000079F087950895121613061406551FF2CF24
:101A10004695F1DF08C0161617061806991FF1CF74
:101A200086957105610508940895E894BB2766279B
:101A30007727CB0197F908950E94A70C08F48FEF40
:101A4000089516F00C94E30D0C94D10C68940C944A
:101A5000CB0C0E94FB0CA8F39923C1F3AEF3DF93E8
:101A6000CF931F930F93FF92C92FDD2788232AF06E
:101A70002197660F771F881FDAF720E030E040E8F3
:101A80005FEB9FE3883920F0803E38F021968F7716
:101A90000E94510BE8E6F0E004C00E94510BE5E91A
:101AA000F0E00E94F10D8B01BE01EC01FB2E6F579F
:101AB00071097595771F880B990B0E946C0C28E1B2
:101AC00032E741E35FE30E94840DAF2D9801AE0140
:101AD000FF900F911F91CF91DF910E94680B0C94A2
:101AE000E20C0E94840D0C94E20C0E94D40C38F09D
:101AF0000E94DB0C20F0952311F00C94CB0C0C947D
:101B0000D10C11240C94160D0E94F30C70F3959FC8
:101B1000C1F3950F50E0551F629FF001729FBB27E4
:101B2000F00DB11D639FAA27F00DB11DAA1F649F80
:101B30006627B00DA11D661F829F2227B00DA11D33
:101B4000621F739FB00DA11D621F839FA00D611DB9
:101B5000221F749F3327A00D611D231F849F600DDA
:101B6000211D822F762F6A2F11249F5750409AF003
:101B7000F1F088234AF0EE0FFF1FBB1F661F771F8F
:101B8000881F91505040A9F79E3F510580F00C945A
:101B9000CB0C0C94160D5F3FE4F3983ED4F386957E
:101BA00077956795B795F795E7959F5FC1F7FE2BFA
:101BB000880F911D9695879597F908950E94A70C17
:101BC000880B990B08959F3F31F0915020F4879531
:101BD00077956795B795880F911D9695879597F995
:101BE0000895DF93CF931F930F93FF92EF92DF92AD
:101BF0007B018C01689406C0DA2EEF010E94840DEF
:101C0000FE01E894A5912591359145915591A6F352
:101C1000EF010E94680BFE019701A801DA9469F7B1
:101C2000DF90EF90FF900F911F91CF91DF9108957A
:101C3000A1E21A2EAA1BBB1BFD010DC0AA1FBB1FD0
:101C4000EE1FFF1FA217B307E407F50720F0A21B42
:101C5000B30BE40BF50B661F771F881F991F1A94AF
:101C600069F760957095809590959B01AC01BD01D9
:101C7000CF010895EE0FFF1F0590F491E02D099418
:101C8000FB01DC0102C001900D9241505040D8F799
:061C90000895F894FFCF57
:101C96000000010002000000010002000300040031
:101CA600050060616601707176023031364041464A
:101CB600505156000000002D028D01BA017A02EB48
:101CC60001C901DD016E616E00696E66006F7666A0
:041CD600000D0A00F3
:00000001FF
