:100000000C9462000C948A000C948A000C948A0070
:100010000C948A000C948A000C948A000C948A0038
:100020000C948A000C948A000C948A000C948A0028
:100030000C948A000C948A000C948A000C948A0018
:100040000C94ED020C948A000C945D030C9437031D
:100050000C948A000C948A000C948A000C948A00F8
:100060000C948A000C948A000000000023002600F3
:10007000290000000000240027002A0000000000E2
:10008000250028002B0004040404040404040202D4
:100090000202020203030303030301020408102007
:1000A0004080010204081020010204081020000012
:1000B0000008000201000003040700000000000027
:1000C0000000AE0411241FBECFEFD8E0DEBFCDBFCD
:1000D00011E0A0E0B1E0EAE0FAE002C005900D9284
:1000E000AC36B107D9F722E0ACE6B1E001C01D9211
:1000F000A231B207E1F710E0C2E6D0E004C02197D8
:10010000FE010E94FD04C136D107C9F70E948F038A
:100110000C9403050C940000833081F028F48130A6
:1001200099F08230A9F008958730A9F08830C9F09D
:100130008430B1F4809180008F7D03C08091800075
:100140008F7780938000089584B58F7784BD08955C
:1001500084B58F7DFBCF8091B0008F778093B00006
:1001600008958091B0008F7DF9CF1F93CF93DF93D7
:10017000282F30E0F901E255FF4F8491F901E6564E
:10018000FF4FD491F901EA57FF4FC491CC23A9F056
:10019000162F81110E948C00EC2FF0E0EE0FFF1F54
:1001A000E458FF4FA591B4918FB7F894EC911111D9
:1001B00008C0D095DE23DC938FBFDF91CF911F91D4
:1001C0000895DE2BF8CFCF93DF9390E0FC01E65645
:1001D000FF4F24918A579F4FFC0184918823D1F0CF
:1001E00090E0880F991FFC01EE58FF4FA591B49144
:1001F000FC01E458FF4FC591D49161110EC09FB727
:10020000F8948C91E22FE0958E238C932881E22341
:10021000E8839FBFDF91CF9108958FB7F894EC9159
:10022000E22BEC938FBFF6CF3FB7F894809171012A
:1002300090917201A0917301B091740126B5A89BB1
:1002400005C02F3F19F00196A11DB11D3FBFBA2F68
:10025000A92F982F8827BC01CD01620F711D811D28
:10026000911D42E0660F771F881F991F4A95D1F7AD
:1002700008958F929F92AF92BF92CF92DF92EF92AA
:10028000FF920E9414014B015C0184E6C82ED12C20
:10029000E12CF12C0E941401681979098A099B0943
:1002A000683E734081059105A8F321E0C21AD10888
:1002B000E108F10888EE880E83E0981EA11CB11CAD
:1002C000C114D104E104F10429F7FF90EF90DF900D
:1002D000CF90BF90AF909F908F900895AF92BF92B4
:1002E000CF92DF92EF92FF920F931F93CF93DF9302
:1002F0006C017B018B01040F151FEB015E01AE1831
:10030000BF08C017D10759F06991D601ED91FC9152
:100310000190F081E02DC6010995892B79F7C5017F
:10032000DF91CF911F910F91FF90EF90DF90CF90D1
:10033000BF90AF900895FC01538D448D252F30E080
:10034000842F90E0821B930B541710F0CF960895E2
:1003500001970895FC01918D828D981761F0A28D0F
:10036000AE0FBF2FB11D5D968C91928D9F5F9F73D5
:10037000928F90E008958FEF9FEF0895FC01918D8B
:10038000828D981731F0828DE80FF11D858D90E0F8
:1003900008958FEF9FEF0895FC01918D228D892F95
:1003A00090E0805C9F4F821B91098F73992708957D
:1003B00085E791E00E94CC0121E0892B09F420E03F
:1003C000822F089580E090E0892B29F00E94D801C7
:1003D00081110C9400000895FC01A48DA80FB92F81
:1003E000B11DA35ABF4F2C91848D90E001968F735D
:1003F0009927848FA689B7892C93A089B1898C917C
:10040000837080648C93938D848D981306C00288CA
:10041000F389E02D80818F7D80830895EF92FF9294
:100420000F931F93CF93DF93EC0181E0888F9B8D17
:100430008C8D98131AC0E889F989808185FF15C0D1
:100440009FB7F894EE89FF896083E889F9898081F4
:100450008370806480839FBF81E090E0DF91CF91C3
:100460001F910F91FF90EF900895F62E0B8D10E0E5
:100470000F5F1F4F0F731127E02E8C8D8E110CC054
:100480000FB607FCFACFE889F989808185FFF5CF9F
:10049000CE010E94EC01F1CFEB8DEC0FFD2FF11D91
:1004A000E35AFF4FF0829FB7F8940B8FEA89FB89DC
:1004B00080818062CFCFCF93DF93EC01888D88233A
:1004C000B9F0AA89BB89E889F9898C9185FD03C0B7
:1004D000808186FD0DC00FB607FCF7CF8C9185FF9C
:1004E000F2CF808185FFEDCFCE010E94EC01E9CFF4
:1004F000DF91CF910895FC0101900020E9F7319739
:10050000AF01481B590BBC0185E791E00C946E01CB
:100510008F929F92AF92BF920F931F93CF93DF93CF
:10052000CDB7DEB7A1970FB6F894DEBF0FBECDBF33
:1005300019A2423008F44AE08E010F5D1F4F842E4D
:10054000912CB12CA12CA50194010E94DB04E62F73
:10055000B901CA01EA30F4F4E05DD801EE938D01EF
:10056000232B242B252B79F790E080E0109719F0AE
:10057000CD010E947B02A1960FB6F894DEBF0FBE9C
:10058000CDBFDF91CF911F910F91BF90AF909F9002
:100590008F900895E95CE1CFCF92DF92EF92FF92C6
:1005A000CF93DF936B017C016DE285E791E00E94C0
:1005B0000E02EC0166277727CB016C197D098E09A5
:1005C0009F094AE00E9488028C0F9D1FDF91CF9106
:1005D000FF90EF90DF90CF9008951F920F920FB68B
:1005E0000F9211242F933F938F939F93AF93BF93B9
:1005F00080916D0190916E01A0916F01B091700199
:1006000030916C0123E0230F2D3758F50196A11D81
:10061000B11D20936C0180936D0190936E01A093A6
:100620006F01B09370018091710190917201A0915E
:100630007301B09174010196A11DB11D80937101E8
:1006400090937201A0937301B0937401BF91AF9125
:100650009F918F913F912F910F900FBE0F901F9000
:10066000189526E8230F0296A11DB11DD2CF1F9227
:100670000F920FB60F9211242F933F934F935F93D6
:100680006F937F938F939F93AF93BF93EF93FF935A
:1006900085E791E00E94EC01FF91EF91BF91AF914E
:1006A0009F918F917F916F915F914F913F912F918A
:1006B0000F900FBE0F901F9018951F920F920FB6BC
:1006C0000F9211242F938F939F93EF93FF93E091B9
:1006D0008501F09186018081E0918B01F0918C0180
:1006E00082FD1BC0908180918E018F5F8F7320915E
:1006F0008F01821741F0E0918E01F0E0EB58FE4F40
:10070000958F80938E01FF91EF919F918F912F9103
:100710000F900FBE0F901F9018958081F4CFCF934C
:10072000DF9300D000D0CDB7DEB7789484B5826077
:1007300084BD84B5816084BD85B5826085BD85B585
:10074000816085BD80916E00816080936E00109203
:10075000810080918100826080938100809181007E
:10076000816080938100809180008160809380000F
:100770008091B10084608093B1008091B00081606D
:100780008093B00080917A00846080937A00809199
:100790007A00826080937A0080917A0081608093F1
:1007A0007A0080917A00806880937A001092C1006C
:1007B000E0918501F091860182E08083E0918101E2
:1007C000F09182011082E0918301F09184018FEC1D
:1007D000808310928D01E0918901F0918A0186E079
:1007E0008083E0918701F09188018081806180831E
:1007F000E0918701F0918801808188608083E09199
:100800008701F0918801808180688083E091870171
:10081000F091880180818F7D808361E083E00E9478
:10082000E30061E084E00E94E30060E085E00E9474
:10083000E30060E086E00E94E30060E087E00E9461
:10084000E30060E088E00E94E30020E0A22E20E0C8
:10085000B22E61E083E00E94B5000E94390160E0A1
:1008600083E00E94B5000E94390161E084E00E94AB
:10087000B5000E94390160E084E00E94B5000E944A
:100880003901CE0101967C016C0110E000E0F80115
:10089000ED54FF4F8491F801E156FF4F9490F80119
:1008A000E557FF4F8490882079F081110E948C00D9
:1008B000E82DF0E0EE0FFF1FE859FF4FA591B4912E
:1008C000EC919E2281E009F480E0F60181936F01B2
:1008D0000F5F1F4F04301105D1F685E0482E512CD3
:1008E000612C712C82E191E00E947B024AE0C301FD
:1008F000B2010E948802F70161917F01062E000C6F
:10090000770B880B990B97FF25C00E94CC0287E1DB
:1009100091E00E947B02FFEF4F1A5F0A6F0A7F0A85
:1009200089E04816510461047104E1F68AE191E01E
:100930000E947B0287E191E00E947B02A114B10436
:1009400009F487CF0E94D801882309F482CF0E943E
:1009500000007FCF4AE00E948802D9CFE5E7F1E0AE
:100960001382128288EE93E0A0E0B0E08483958346
:10097000A683B78384E091E09183808385EC90E047
:100980009587848784EC90E09787868780EC90E059
:10099000918B808B81EC90E0938B828B82EC90E04A
:1009A000958B848B86EC90E0978B868B118E128EC4
:1009B000138E148E0895A1E21A2EAA1BBB1BFD01F3
:1009C0000DC0AA1FBB1FEE1FFF1FA217B307E4072E
:1009D000F50720F0A21BB30BE40BF50B661F771F86
:1009E000881F991F1A9469F7609570958095909566
:1009F0009B01AC01BD01CF010895EE0FFF1F0590D3
:0A0A0000F491E02D0994F894FFCF63
:100A0A00000000000E026E019B015B02CC01AA01EC
:100A1A00BE0150494E20000D0A002323232323231D
:100A2A00232323232323232323232323232323208F
:100A3A00492F4F205445535420434F44452057498A
:100A4A0054482053455249414C204F55542323239F
:100A5A00232323232323232323232323232323235C
:0C0A6A00232323232323232323232300FF
:00000001FF
